:020000040800F2
:10000000E00600202902000831020008330200083F
:10001000350200083702000839020008000000001D
:100020000000000000000000000000003B0200088B
:100030003D020008000000003F02000841020008E5
:10004000430200084302000843020008430200087C
:10005000430200084302000843020008430200086C
:10006000430200084302000843020008430200085C
:10007000430200084302000843020008430200084C
:10008000430200084302000843020008430200083C
:10009000430200084302000843020008430200082C
:1000A000430200084302000843020008430200081C
:1000B000F9020008430200080000000043020008A3
:1000C0004302000800000000000000004302000896
:1000D0000000000043020008430200084302000839
:1000E0004302000843020008000000000000000076
:1000F0000000000000000000000000000000000000
:1001000000000000000000000000000000000000EF
:100110000000000000000000430200084302000845
:1001200000000000000000000000000000000000CF
:1001300000000000000000000000000000000000BF
:100140004302000843020008000000000000000015
:10015000000000000000000000000000000000009F
:10016000000000000000000000000000000000008F
:10017000000000000000000000000000000000007F
:10018000000000004302000800F002F800F03CF814
:100190000AA090E8000C82448344AAF10107DA45E2
:1001A00001D100F031F8AFF2090EBAE80F0013F0F8
:1001B000010F18BFFB1A43F001031847F4090000B0
:1001C000140A0000103A24BF78C878C1FAD8520740
:1001D00024BF30C830C144BF04680C6070470000C1
:1001E0000023002400250026103A28BF78C1FBD840
:1001F000520728BF30C148BF0B6070471FB500F0E1
:10020000CAFC1FBD10B510BD00F031F81146FFF754
:10021000F5FF00F071F900F04FF803B4FFF7F2FFBB
:1002200003BC00F057F80000094880470948004720
:10023000FEE7FEE7FEE7FEE7FEE7FEE7FEE7FEE796
:10024000FEE7FEE704480549054A064B70470000F3
:10025000E502000889010008E0000020E006002017
:10026000E0020020E00200207047704770477546AA
:1002700000F02CF8AE4605006946534620F0070012
:10028000854618B020B5FFF7DDFFBDE820404FF0F0
:1002900000064FF000074FF000084FF0000BAC468F
:1002A000ACE8C009ACE8C009ACE8C009ACE8C009DA
:1002B00021F007018D46704710B50446AFF300806A
:1002C0002046BDE81040FFF7A8BF00000048704777
:1002D0005000002001491820ABBEFEE726000200B6
:1002E000704700004EF68850CEF20000016841F4DD
:1002F000700101607047000070B50C24C4F2000466
:100300002068C00708BF70BD40F2B005C2F200050A
:100310002E6840F20000C2F20000F10708BF28304A
:10032000B6F5F07FA8BF281D00F0EAF8701CB6F5FE
:10033000FE7FA8BF00202860206800F00100206038
:1003400070BD0000B0B541F21400C4F202000168B3
:10035000082241F400310160C4F6000291694FF0B7
:10036000904441F01101916121684FF0000E41F07D
:100370000A0121601168012341F00F0111608168B9
:100380004FF0804C41F0010181601821C4F200015E
:10039000C1F80CE00B6140F23F334B61DCF80030F8
:1003A0004FF0805543F08403CCF800304FF43C7399
:1003B000CB610B6843F068030B6040F2B9230B621A
:1003C0000B6843F4F0430B608B6843F011038B60C0
:1003D00051F8043C43F0010341F8043C51F8143C4B
:1003E00043F0200341F8143C51F80C3C43F0010366
:1003F00041F80C3C4EF20013CEF200031D6003687E
:100400004FF4FE7543F400330360936943F00853DF
:100410009361236843F420432360136843F47043DB
:100420001360836843F00203836040F21843C4F210
:100430000003C3F80CE0C3F810E05D61D1F8E853A5
:1004400045F08405C1F8E85340F2E315DD611D680D
:1004500045F068051D6040F2E1151D621D6845F418
:10046000F0451D609D6845F011059D6053F8045CE2
:1004700045F0010543F8045C53F8105C45F017059E
:1004800043F8105C036843F480230360D2F8183407
:1004900043F4A003C2F81834D2F8F83343F40063ED
:1004A000C2F8F833D2F8003443F44063C2F80034A1
:1004B000426842F48052426043F20000C4F20100FC
:1004C0004CF204320260026842F00802026040F618
:1004D00004724260026842F040020260D1F8E80310
:1004E00040F00100C1F8E803DCF8000040F0010032
:1004F000CCF80000B0BD000000F0A8F9FEE7000055
:10050000028843F20801C4F201014A600A689207B6
:100510005FBF0A685FEA82720A685FEA827202D489
:100520000A689207F2D542884A6000BF0A689207BB
:100530005FBF0A685FEA82720A685FEA827202D469
:100540000A689207F2D582884A6000BF0A6892075B
:100550005FBF0A685FEA82720A685FEA827202D449
:100560000A689207F2D5C2884A6000BF0A689207FB
:100570005FBF0A685FEA82720A685FEA827202D429
:100580000A689207F2D502894A6000BF0A6892079A
:100590005FBF0A685FEA82720A685FEA827202D409
:1005A0000A689207F2D542894A6000BF0A6892073A
:1005B0005FBF0A685FEA82720A685FEA827202D4E9
:1005C0000A689207F2D582894A6000BF0A689207DA
:1005D0005FBF0A685FEA82720A685FEA827202D4C9
:1005E0000A689207F2D5C2894A6000BF0A6892077A
:1005F0005FBF0A685FEA82720A685FEA827202D4A9
:100600000A689207F2D5028A4A6000BF0A68920718
:100610005FBF0A685FEA82720A685FEA827202D488
:100620000A689207F2D5428A4A6000BF0A689207B8
:100630005FBF0A685FEA82720A685FEA827202D468
:100640000A689207F2D5828A4A6000BF0A68920758
:100650005FBF0A685FEA82720A685FEA827202D448
:100660000A689207F2D5C28A4A6000BF0A689207F8
:100670005FBF0A685FEA82720A685FEA827202D428
:100680000A689207F2D5028B4A6000BF0A68920797
:100690005FBF0A685FEA82720A685FEA827202D408
:1006A0000A689207F2D5428B4A6000BF0A68920737
:1006B0005FBF0A685FEA82720A685FEA827202D4E8
:1006C0000A689207F2D5828B4A6000BF0A689207D7
:1006D0005FBF0A685FEA82720A685FEA827202D4C8
:1006E0000A689207F2D5C28B4A6000BF0A68920777
:1006F0005FBF0A685FEA82720A685FEA827202D4A8
:100700000A689207F2D5028C4A6000BF0A68920715
:100710005FBF0A685FEA82720A685FEA827202D487
:100720000A689207F2D5428C4A6000BF0A689207B5
:100730005FBF0A685FEA82720A685FEA827202D467
:100740000A689207F2D5828C4A6000BF0A68920755
:100750005FBF0A685FEA82720A685FEA827202D447
:100760000A689207F2D5C08C486000BF086880070D
:100770005FBF08685FEA807008685FEA807002D433
:1007800008688007F2D50020486000BF086880072D
:100790005FBF08685FEA807008685FEA807002D413
:1007A00008688007F2D50020486000BF086880070D
:1007B0005FBF08685FEA807008685FEA807002D4F3
:1007C00008688007F2D50020486000BF08688007ED
:1007D0005FBF08685FEA807008685FEA807002D4D3
:1007E00008688007F2D50020486000BF08688007CD
:1007F0005FBF08685FEA807008685FEA807002D4B3
:1008000008688007F2D50020486000BF08688007AC
:100810005FBF08685FEA807008685FEA807002D492
:1008200008688007F2D50020486003E00868800768
:1008300048BF70470868800706D4086880075CBF17
:1008400008685FEA8070F1D570470000B0B542F2E9
:100850000001C4F202010A6841F2000042F01202F3
:10086000C4F202000A60016841F4A021016000BFE7
:10087000016889035FBF01685FEA813101685FEA4F
:10088000813102D401688903F2D5416841F4806165
:100890004160416841F420114160416841F4803178
:1008A0004160016841F08071016000BF0168890109
:1008B0005FBF01685FEA811101685FEA811102D4BC
:1008C00001688901F2D5416844F6000541F0020152
:1008D00041608169C4F2010541F480218161296888
:1008E000202341F0880129604169C4F6000341F4E6
:1008F000003141614FF090410A6803F16054224396
:100900000A60196844F21C4441F4E06119605968B6
:10091000C4F2000441F0E0415960C16941F4003182
:10092000C1614FF49C7044F8100C54F81C0C40F05A
:10093000090044F81C0CFFF705FD286820F00100B1
:10094000286000202861686241F61F40A86241F2D9
:100950008730E862286840F0010028602869C007F5
:1009600001BF28695FEAC07028695FEAC07006D1DC
:100970002869C007F2D002E02068000609D4206888
:1009800000065FBF20685FEA006020685FEA0060E1
:10099000F2D55320A08100BF206800065FBF206809
:1009A0005FEA006020685FEA006002D42068000609
:1009B000F2D56520A08100BF206800065FBF2068D7
:1009C0005FEA006020685FEA006002D420680006E9
:1009D000F2D57420A08100BF206800065FBF2068A8
:1009E0005FEA006020685FEA006002D420680006C9
:1009F000F2D57520A08100BF206800065FBF206887
:100A00005FEA006020685FEA006002D420680006A8
:100A1000F2D57020A08100BF206800065FBF20686B
:100A20005FEA006020685FEA006002D42068000688
:100A3000F2D52020A08100BF206800065FBF20689B
:100A40005FEA006020685FEA006002D42068000668
:100A5000F2D56320A08100BF206800065FBF206838
:100A60005FEA006020685FEA006002D42068000648
:100A7000F2D56F20A08100BF206800065FBF20680C
:100A80005FEA006020685FEA006002D42068000628
:100A9000F2D56D20A08100BF206800065FBF2068EE
:100AA0005FEA006020685FEA006002D42068000608
:100AB000F2D57020A08100BF206800065FBF2068CB
:100AC0005FEA006020685FEA006002D420680006E8
:100AD000F2D56C20A08100BF206800065FBF2068AF
:100AE0005FEA006020685FEA006002D420680006C8
:100AF000F2D56520A08100BF206800065FBF206896
:100B00005FEA006020685FEA006002D420680006A7
:100B1000F2D57420A08100BF206800065FBF206866
:100B20005FEA006020685FEA006002D42068000687
:100B3000F2D56520A08100BF206800065FBF206855
:100B40005FEA006020685FEA006002D42068000667
:100B5000F2D52020A08100BF206800065FBF20687A
:100B60005FEA006020685FEA006002D42068000647
:100B7000F2D50A20A0812068000609D4206800066A
:100B80005CBF20685FEA006002D420680006F2D5EE
:100B90000D20A081B0BDF1EE100A4FF6FF71C0F23A
:100BA000C03120EA010040F04070E1EE100A7047C9
:100BB000D00B00080000002050000000C401000815
:100BC000200C00085000002090060000E001000802
:100BD000AAAA0000AAAA0000AAAA0000AAAA0000C5
:100BE000AAAA0000FFFF0000FFFF0000FFFF0000B7
:100BF000FFFF0000FFFF00000000AAAA0000AAAA51
:100C00000000AAAA0000AAAA0000AAAA0000FFFFEA
:100C10000000FFFF0000FFFF0000FFFF0000FFFFDC
:0400000508000229C4
:00000001FF
